:10000000BFEF01F02E004E4F204448543131000024
:10001000444F4320534149204455204C49455520E5
:1000200044485431310051C052F0536A665051C0B7
:1000300066FF6430FEE3665050C066FF6430FEE346
:10004000120005C051F004C050F0EDDF97988E8883
:1000500097988E989FEF00F03D503F6E3F1E665080
:100060003FC066FF6430FEE33EC03FF03F1E665077
:100070003FC066FF6430FEE3979E8E8E979E8E9EF5
:10008000A2EF00F03D503F6E3F1E66503FC066FF3E
:100090006430FEE33EC03FF03F1E66503FC066FF47
:1000A0006430FEE398988F8898988F98A5EF00F0B9
:1000B0000DC051F00CC050F0B6DF0BC051F00AC0BB
:1000C00050F0B1DF09C051F008C050F0ACDF07C0FC
:1000D00051F006C050F0A7DF979A8E8A979A8E9AB1
:1000E000A6EF00F0070E3D6E3D50800A7F0811E23A
:1000F000036A3D500E0FE96E000E0320EA6EEF50CA
:10010000FF0A3E6E66503EC066FF6430FEE33D0669
:10011000EBD7979C8E8C979C8E9CA7EF00F04DC0E0
:1001200051F04CC050F07FDF4FC051F04EC050F046
:100130007ADF93968A8693968A96120082D73D68D4
:100140003E688AD73D683E689DD7B2D7CBD74D6A07
:100150004C6A4F6A4E6AE3DFD3EF00F0FF0E926EF7
:10016000F10E936EC10E946E949A8B8A94948B9434
:1001700094928B92080E956E5F0E966E070E976E98
:10018000160E986E93968A96979C8E9C979A8E9A46
:1001900098988F98979E8E9E97988E9897968E8611
:1001A000056A046ACBD7949A8B9A95948C84959E11
:1001B0008C8E639A9598958A959C200E636E400E5E
:1001C000646EC050C00BC06EC08EC280C150C00BE8
:1001D0000A09C16E1CEF02F0EA6A450EE96EEF50A3
:1001E0000DE0060E016E006A002EFED7012EFBD731
:1001F0007B0E006E002EFED7EF2EF3D712004D6A55
:100200004C6A4F6A4E6A8BDF4CEF02F046C048F0F2
:1002100047C049F045C04BF044C04AF049C04DF0DA
:1002200048C04CF04BC04FF04AC04EF078DF12008F
:10023000436A426A416A406A3F6A3F501F082CE3A2
:10024000D8904034456E4134466E4234476E433454
:10025000486E010E4524406E000E4620416E000E91
:100260004720426E000E4820436E43C047F042C014
:1002700046F041C045F040C044F0C8DF3EC044F005
:10028000442A4406D8B403D04568A6DFFAD73DC057
:1002900045F0A2DF3F2AD1D73F6A3F501F081CE339
:1002A000D890403641364236433643C047F042C0CC
:1002B00046F041C045F040C044F0A8DF3EC044F0E5
:1002C000442A4406D8B403D0456886DFFAD73DC037
:1002D00045F082DF3F2AE1D74CEF02F0436A426AE1
:1002E000416A406A3F6A3F501F0827E3D890433075
:1002F000486E4230476E4130466E4030406E46C0D8
:1003000041F047C042F0800E4824436E43C047F09E
:1003100042C046F041C045F040C044F077DF3EC0E7
:1003200044F0442A4406D8B403D0456855DFFAD7D0
:100330003DC045F051DF3F2AD6D73F6A3F501F08E6
:100340001CE3D890433242324132403243C047F03E
:1003500042C046F041C045F040C044F057DF3EC0C7
:1003600044F0442A4406D8B403D0456835DFFAD7B0
:100370003DC045F031DF3F2AE1D74CEF02F0F86A8B
:10038000D09E639A000E646E210E636E9598958AD6
:10039000959C7E86080EAF6E020E7F6EA60EAC6E2A
:1003A000900EAB6E7C86080E6F6E020E7D6EA60EF2
:1003B0006C6E900E6B6E056A046A166A2168349042
:1003C0003A6A050E3B6E3C6AC150C00B0F09C16E04
:1003D000070EB46E11D00840060008C0FF0840198F
:1003E0000012002230331503160221909030301095
:1003F0000820022090960000000EF86E030EF76EA3
:10040000D60EF66E0900F550006E000A13E00900E2
:10041000F550016EE8BE05D00F0BEA6E0900F5CF6E
:10042000E9FF01BC090001AC0900F5CFEEFF004E69
:10043000E9D7F9D7F86A92D64D6A4C6A4F6A4E6A84
:100440006EDE938C81BC0CD0320E456EC5DE938C73
:1004500081BC06D03C2A3C50020802E2020E3C6EEF
:10046000938881B807D0320E456EB6DE938881B886
:1004700001D03C063C5005E0010A05E0030A08E013
:100480000BD0BDD609D03E6A140E3D6ED1D604D035
:0C0490003E6A140E3D6E22D7D4D7030044
:020000040030CA
:0E00000000C21E1E0385B100FFC0FFE0FF40DE
:00000001FF
;PIC18F6722
;CRC=0A34  CREATED="13-Thg2-25 10:19"
