:10000000BDEF01F02E004E4F204448543131000026
:10001000444F4320534149204455204C49455520E5
:1000200044485431310056C057F0586A665056C0A3
:1000300066FF6430FEE3665055C066FF6430FEE341
:10004000120005C056F004C055F0EDDF97988E8879
:1000500097988E989FEF00F04750496E491E665062
:1000600049C066FF6430FEE348C049F0491E66504F
:1000700049C066FF6430FEE3979E8E8E979E8E9EEB
:10008000A2EF00F04750496E491E665049C066FF16
:100090006430FEE348C049F0491E665049C066FF1F
:1000A0006430FEE398988F8898988F98A5EF00F0B9
:1000B0000DC056F00CC055F0B6DF0BC056F00AC0AC
:1000C00055F0B1DF09C056F008C055F0ACDF07C0ED
:1000D00056F006C055F0A7DF979A8E8A979A8E9AA7
:1000E000A6EF00F0070E476E4750800A7F0811E226
:1000F000036A47500E0FE96E000E0320EA6EEF50C0
:10010000FF0A486E665048C066FF6430FEE347064B
:10011000EBD7979C8E8C979C8E9CA7EF00F052C0DB
:1001200056F051C055F07FDF54C056F053C055F023
:100130007ADF93968A8693968A96120082D74768CA
:1001400048688AD7476848689DD7B2D7CBD7526AE4
:10015000516A546A536AE3DFD3EF00F0FF0E926EE8
:10016000F10E936EC10E946E949A8B8A94948B9434
:1001700094928B92080E956E5F0E966E070E976E98
:10018000160E986E93968A96979C8E9C979A8E9A46
:1001900098988F98979E8E9E97988E9897968E8611
:1001A000056A046ACBD7949A8B9A95948C84959E11
:1001B0008C8E639A9598958A959C200E636E400E5E
:1001C000646EC050C00BC06EC08EC280C150C00BE8
:1001D0000A09C16E24EF02F0EA6A4A0EE96EEF5096
:1001E0000DE0060E016E006A002EFED7012EFBD731
:1001F0007B0E006E002EFED7EF2EF3D71200526A50
:10020000516A546A536A8BDF54EF02F04BC04DF0D1
:100210004CC04EF04AC050F049C04FF04EC052F0B2
:100220004DC051F050C054F04FC053F078DF120071
:100230003D501F082CE3D8903E344A6E3F344B6E3D
:1002400040344C6E41344D6E010E4A243E6E000E19
:100250004B203F6E000E4C20406E000E4D20416E34
:1002600041C04CF040C04BF03FC04AF03EC049F0A6
:10027000CDDF48C049F0492A4906D8B403D04A68BE
:10028000ABDFFAD747C04AF0A7DF3D2A24D03D5064
:100290003F081CE3D8903E363F364036413641C0D9
:1002A0004CF040C04BF03FC04AF03EC049F0AEDFDA
:1002B00048C049F0492A4906D8B403D04A688CDFBF
:1002C000FAD747C04AF088DF3D2A05D03D6A416A27
:1002D000406A3F6A3E6A54EF02F042501F0827E32B
:1002E000D89046304D6E45304C6E44304B6E4330A6
:1002F000436E4BC044F04CC045F0800E4D24466E1A
:1003000046C04CF045C04BF044C04AF043C049F0F1
:100310007DDF48C049F0492A4906D8B403D04A686D
:100320005BDFFAD747C04AF057DF422A24D0425059
:100330003F081CE3D890463245324432433246C02F
:100340004CF045C04BF044C04AF043C049F05EDF7A
:1003500048C049F0492A4906D8B403D04A683CDF6E
:10036000FAD747C04AF038DF422A05D0426A466AC7
:10037000456A446A436A54EF02F0F86AD09E639A71
:10038000000E646E210E636E9598958A959C7E860C
:10039000080EAF6E020E7F6EA60EAC6E900EAB6EA8
:1003A0007C86080E6F6E020E7D6EA60E6C6E900E31
:1003B0006B6E056A046A166A216834903A6A050E03
:1003C0003B6E3C6A3D6A416A406A3F6A3E6A426AE5
:1003D000466A456A446A436AC150C00B0F09C16E40
:1003E000070EB46E11D00840060008C0FF0840197F
:1003F0000012002230331503160221909030301085
:100400000820022090960000000EF86E030EF76E92
:10041000E60EF66E0900F550006E000A13E00900C2
:10042000F550016EE8BE05D00F0BEA6E0900F5CF5E
:10043000E9FF01BC090001AC0900F5CFEEFF004E59
:10044000E9D7F9D7F86A8AD6526A516A546A536A68
:1004500066DE938C81BC0CD0320E4A6EBDDE938C6E
:1004600081BC06D03C2A3C50020802E2020E3C6EDF
:10047000938881B807D0320E4A6EAEDE938881B879
:1004800001D03C063C5005E0010A05E0030A08E003
:100490000BD0B5D609D0486A140E476EC9D604D021
:0C04A000486A140E476E19D7D4D7030029
:020000040030CA
:0E00000000C21E1E0385B100FFC0FFE0FF40DE
:00000001FF
;PIC18F6722
;CRC=5A8F  CREATED="13-Thg2-25 10:23"
