:1000000025EF01F02E004E4F2044485431310000BE
:10001000444F4320534149204455204C49455520E5
:1000200044485431310044C045F0466A665044C0EB
:1000300066FF6430FEE3665043C066FF6430FEE353
:10004000120005C044F004C043F0EDDF97988E889D
:1000500097988E989FEF00F03F50416E411E66507A
:1000600041C066FF6430FEE340C041F0411E66506F
:1000700041C066FF6430FEE3979E8E8E979E8E9EF3
:10008000A2EF00F03F50416E411E665041C066FF36
:100090006430FEE340C041F0411E665041C066FF3F
:1000A0006430FEE398988F8898988F98A5EF00F0B9
:1000B0000DC044F00CC043F0B6DF0BC044F00AC0E2
:1000C00043F0B1DF09C044F008C043F0ACDF07C023
:1000D00044F006C043F0A7DF979A8E8A979A8E9ACB
:1000E000A6EF00F0070E3F6E3F50800A7F0811E236
:1000F000036A3F500E0FE96E000E0320EA6EEF50C8
:10010000FF0A406E665040C066FF6430FEE33F0663
:10011000EBD7979C8E8C979C8E9CA7EF00F040C0ED
:1001200044F03FC043F07FDF42C044F041C043F0A1
:100130007ADF93968A8693968A96120082D73F68D2
:1001400040688AD73F6840689DD7B2D7CBD7406A0E
:100150003F6A426A416AE3DFD3EF00F0FF0E926E1E
:10016000F10E936EC10E946E949A8B8A94948B9434
:1001700094928B92080E956E5F0E966E070E976E98
:10018000160E986E93968A96979C8E9C979A8E9A46
:1001900098988F98979E8E9E97988E9897968E8611
:1001A000056A046ACBD7949A8B9A95948C84959E11
:1001B0008C8E639A9598958A959C200E636E400E5E
:1001C000646EC050C00BC06EC08EC280C150C00BE8
:1001D0000A09C16E84EF01F0EA6A3F0EE96EEF5042
:1001E0000DE0060E016E006A002EFED7012EFBD731
:1001F0007B0E006E002EFED7EF2EF3D71200D890A4
:100200003D343F6E3E34406E010E3F243D6E000E85
:1002100040203E6E406A3F6A3EC042F03DC041F021
:100220007EDF320E3F6ED8DF92EF01F0D8903E3283
:100230003D32406A3F6A3EC042F03DC041F06FDF50
:10024000320E3F6EC9DF9CEF01F0F86AD09E639AD0
:10025000000E646E210E636E9598958A959C7E863D
:10026000080EAF6E020E7F6EA60EAC6E900EAB6ED9
:100270007C86080E6F6E020E7D6EA60E6C6E900E62
:100280006B6E056A046A166A216834903A6A050E34
:100290003B6E3C6A3E6A3D6AC150C00B0F09C16E9D
:1002A000070EB46E11D00840060008C0FF084019C0
:1002B00000120022303315031602219090303010C6
:1002C0000820022090960000000EF86E020EF76ED5
:1002D000A60EF66E0900F550006E000A13E0090044
:1002E000F550016EE8BE05D00F0BEA6E0900F5CFA0
:1002F000E9FF01BC090001AC0900F5CFEEFF004E9B
:10030000E9D7F9D7F86A2AD7406A3F6A426A416A50
:1003100006DF938C81BC07D0320E3F6E5DDF938C7D
:1003200081AC6DD718D0938881B807D0320E3F6E5C
:1003300053DF938881A87AD70ED0938E81BE0BD0DD
:10034000320E3F6E49DF938E81BE05D0406A3F6A10
:0A035000426A416AE4DEDDD70300D3
:020000040030CA
:0E00000000C21E1E0385B100FFC0FFE0FF40DE
:00000001FF
;PIC18F6722
;CRC=CD54  CREATED="13-Thg2-25 09:22"
