:1000000023EF01F02E004E4F2044485431310000C0
:10001000444F4320534149204455204C49455520E5
:1000200044485431310045C046F0476A665045C0E7
:1000300066FF6430FEE3665044C066FF6430FEE352
:10004000120005C045F004C044F0EDDF97988E889B
:1000500097988E989FEF00F04050426E421E665077
:1000600042C066FF6430FEE341C042F0421E66506B
:1000700042C066FF6430FEE3979E8E8E979E8E9EF2
:10008000A2EF00F04050426E421E665042C066FF32
:100090006430FEE341C042F0421E665042C066FF3B
:1000A0006430FEE398988F8898988F98A5EF00F0B9
:1000B0000DC045F00CC044F0B6DF0BC045F00AC0DF
:1000C00044F0B1DF09C045F008C044F0ACDF07C020
:1000D00045F006C044F0A7DF979A8E8A979A8E9AC9
:1000E000A6EF00F0070E406E4050800A7F0811E234
:1000F000036A40500E0FE96E000E0320EA6EEF50C7
:10010000FF0A416E665041C066FF6430FEE3400660
:10011000EBD7979C8E8C979C8E9CA7EF00F041C0EC
:1001200045F040C044F07FDF43C045F042C044F09A
:100130007ADF93968A8693968A96120082D74068D1
:1001400041688AD7406841689DD7B2D7CBD7416A0A
:10015000406A436A426AE3DFD3EF00F0FF0E926E1B
:10016000F10E936EC10E946E949A8B8A94948B9434
:1001700094928B92080E956E5F0E966E070E976E98
:10018000160E986E93968A96979C8E9C979A8E9A46
:1001900098988F98979E8E9E97988E9897968E8611
:1001A000056A046ACBD7949A8B9A95948C84959E11
:1001B0008C8E639A9598958A959C200E636E400E5E
:1001C000646EC050C00BC06EC08EC280C150C00BE8
:1001D0000A09C16E83EF01F0EA6A400EE96EEF5042
:1001E0000DE0060E016E006A002EFED7012EFBD731
:1001F0007B0E006E002EFED7EF2EF3D71200D890A4
:100200003E34406E3F34416E010E40243E6E000E7F
:1002100041203F6E416A406A3FC043F03EC042F019
:100220007EDF320E406ED8DF1200D8903F323E3271
:10023000416A406A3FC043F03EC042F070DF320E78
:10024000406ECADF1200F86AD09E639A000E646E98
:10025000210E636E9598958A959C7E86080EAF6EEA
:10026000020E7F6EA60EAC6E900EAB6E7C86080EF4
:100270006F6E020E7D6EA60E6C6E900E6B6E056A32
:10028000046A166A216834903A6A050E3B6E3C6A2D
:100290003D6A3F6A3E6AC150C00B0F09C16E070E2E
:1002A000B46E11D00840060008C0FF0840190012C3
:1002B00000223033150316022190903030100820B0
:1002C000022090960000000EF86E020EF76EA40E4B
:1002D000F66E0900F550006E000A13E00900F550B3
:1002E000016EE8BE05D00F0BEA6E0900F5CFE9FFFD
:1002F00001BC090001AC0900F5CFEEFF004EE9D7C3
:10030000F9D7F86A2BD7416A406A436A426A07DF25
:10031000938E81BE07D0320E406E5EDF938E81BE1B
:1003200001D03D1E3D5214E1938C81BC07D0320EAA
:10033000406E52DF938C81AC62DF09D0938881B824
:1003400006D0320E406E48DF938881A86EDF13D04E
:10035000938C81BC07D0320E406E3EDF938C81AC13
:1003600064DF09D0938881B806D0320E406E34DF46
:0A037000938881A844DFCCD7030076
:020000040030CA
:0E00000000C21E1E0385B100FFC0FFE0FF40DE
:00000001FF
;PIC18F6722
;CRC=2918  CREATED="13-Thg2-25 09:35"
