:1000000006EF01F02E004E4F2044485431310000DD
:10001000444F4320534149204455204C49455520E5
:1000200044485431310042C043F0446A665042C0F3
:1000300066FF6430FEE3665041C066FF6430FEE355
:10004000120005C042F004C041F0EDDF97988E88A1
:1000500097988E98A0EF00F03D503F6E3F1E66507F
:100060003FC066FF6430FEE33EC03FF03F1E665077
:100070003FC066FF6430FEE3979E8E8E979E8E9EF5
:10008000A3EF00F03D503F6E3F1E66503FC066FF3D
:100090006430FEE33EC03FF03F1E66503FC066FF47
:1000A0006430FEE398988F8898988F98A6EF00F0B8
:1000B0000DC042F00CC041F0B6DF0BC042F00AC0E8
:1000C00041F0B1DF09C042F008C041F0ACDF07C029
:1000D00042F006C041F0A7DF979A8E8A979A8E9ACF
:1000E000A7EF00F0070E3D6E3D50800A7F0811E239
:1000F000036A3D500E0FE96E000E0320EA6EEF50CA
:10010000FF0A3E6E66503EC066FF6430FEE33D0669
:10011000EBD7979C8E8C979C8E9CA8EF00F03EC0EE
:1001200042F03DC041F07FDF40C042F03FC041F0AF
:100130007ADF93968A8693968A96ADEF00F081D700
:100140003D683E6889D73D683E689CD7B1D7CAD71D
:100150003E6A3D6A406A3F6AE2D7D4EF00F0FF0E84
:10016000926EF10E936EC10E946E949A8B8A949453
:100170008B9494928B92080E956E5F0E966E070E7E
:10018000976E160E986E93968A96979C8E9C979A69
:100190008E9A98988F98979E8E9E97988E989796FD
:1001A0008E86056A046ACBD7949A8B9A95948C8430
:1001B000959E8C8E639A9598958A959C200E636E79
:1001C000400E646EC050C00BC06EC08EC280C15065
:1001D000C00B0A09C16E63EF01F066503DC066FFB7
:1001E0006430FEE366503EC066FF6430FEE3665056
:1001F0003FC066FF6430FEE3665040C066FF643077
:10020000FEE393968A8693968A961200F86AD09EA9
:10021000639A000E646E210E636E9598958A959C84
:100220007E86080EAF6E020E7F6EA60EAC6E900E2E
:10023000AB6E7C86080E6F6E020E7D6EA60E6C6E27
:10024000900E6B6E056A046A166A216834903A6AE9
:10025000050E3B6E3C6AC150C00B0F09C16E070E04
:10026000B46E11D00840060008C0FF084019001203
:1002700000223033150316022190903030100820F0
:10028000022090960000000EF86E020EF76E640ECB
:10029000F66E0900F550006E000A13E00900F550F3
:1002A000016EE8BE05D00F0BEA6E0900F5CFE9FF3D
:1002B00001BC090001AC0900F5CFEEFF004EE9D703
:1002C000F9D7F86A4CD73D6A3E6A3F6A406A85DFD3
:1002D000938C81BC03D00F0E3C6E09D0938881B8FB
:1002E00002D03C1E04D0978285B201D03C6A3D6AA0
:0E02F0003E6A3F6A3CC040F070DFEAD7030070
:020000040030CA
:0E00000000C21E1E0385B100FFC0FFE0FF40DE
:00000001FF
;PIC18F6722
;CRC=ED2E  CREATED="13-Thg2-25 08:43"
